:1000000007308A00472F0000FF00030E8301A10084
:100010000A08A0008A010408A2007708A300780853
:10002000A4007908A5007A08A600831383128C30F7
:100030008400801E1D288C1A2E2822088400230884
:10004000F7002408F8002508F9002608FA0020081F
:100050008A00210E8300FF0E7F0E09008A110A120A
:1000600040280330E102031C3F28613084008313E1
:10007000000803193F283D283D28800B3C28080034
:1000800083168C1283128C1E43281A08AD0001308F
:10009000DC002D08553C031D8528DD115D08831605
:1000A000870083128715CD01CC014D083302031C54
:1000B0008528031D5F2832084C0203188528831603
:1000C0000810831208143508E000E00AE003031961
:1000D0006D28FF30E100312066283408E10031202E
:1000E00083160810831208103508E000E00AE003C8
:1000F00003197E28FF30E100312077283408E10021
:100100003120CC0A0319CD0A55282D084F3C031D78
:10011000C128DD115D088316870083128711CF0186
:10012000CE014F083302031CC128031D9B2832084F
:100130004E020318C12883160810831208143508CC
:10014000E000E00AE0030319A928FF30E1003120B4
:10015000A2283408E1003120831608108312081009
:100160003508E000E00AE0030319BA28FF30E10097
:100170003120B3283408E1003120CE0A0319CF0A18
:1001800091282D084A3C031DFD285D125D08831649
:10019000870083120712D101D00151083302031CDA
:1001A000FD28031DD728320850020318FD288316A6
:1001B0008811831288153508E000E00AE00303196E
:1001C000E528FF30E1003120DE283408E10031204D
:1001D00083168811831288113508E000E00AE003D5
:1001E0000319F628FF30E1003120EF283408E10040
:1001F0003120D00A0319D10ACD282D08573C031D00
:1002000039295D125D088316870083120716D30112
:10021000D20153083302031C3929031D1329320864
:10022000520203183929831688118312881535085C
:10023000E000E00AE00303192129FF30E10031204A
:100240001A293408E100312083168811831288119D
:100250003508E000E00AE00303193229FF30E1002D
:1002600031202B293408E1003120D20A0319D30AA6
:1002700009292D08433C031DB9292E08B8072F086A
:1002800003182F0FB9072E08BA072F0803182F0FCE
:10029000BB07DD115D088316870083128715C9012E
:1002A000C80149082F02031C8129031D5B292E0860
:1002B0004802031881298316081083120814310894
:1002C000E000E00AE00303196929FF30E100312072
:1002D00062293008E10031208316081083120810CB
:1002E0003108E000E00AE00303197A29FF30E10059
:1002F000312073293008E1003120C80A0319C90AE6
:1003000051295D125D088316870083120716C50107
:10031000C40145082F02031CB929031D93292E0887
:1003200044020318B92983168811831288153108ED
:10033000E000E00AE0030319A129FF30E1003120C9
:100340009A293008E1003120831688118312881120
:100350003108E000E00AE0030319B229FF30E100B0
:100360003120AB293008E1003120C40A0319C50A45
:1003700089292D08423C031DFB292E08BA072F08A6
:1003800003182F0FBB07DD115D088316870083124A
:100390008715C901C80149082F02031CFB29031D49
:1003A000D5292E0848020318FB298316081083124A
:1003B00008143108E000E00AE0030319E329FF30E4
:1003C000E1003120DC293008E100312083160810DB
:1003D000831208103108E000E00AE0030319F42951
:1003E000FF30E1003120ED293008E1003120C80A5A
:1003F0000319C90ACB292D08413C031D7B2A2E086D
:10040000B8022F08031C2F0FB9022E08BA072F08B5
:1004100003182F0FBB07DD115D08831687008312B9
:100420008715C901C80149082F02031C432A031D6F
:100430001D2A2E0848020318432A83160810831227
:1004400008143108E000E00AE00303192B2AFF300A
:10045000E1003120242A3008E10031208316081001
:10046000831208103108E000E00AE00303193C2A77
:10047000FF30E1003120352A3008E1003120C80A80
:100480000319C90A132A5D125D08831687008312B7
:100490000712C701C60147082F02031C7B2A031D50
:1004A000552A2E08460203187B2A831688118312C8
:1004B00088153108E000E00AE0030319632AFF30E1
:1004C000E10031205C2A3008E100312083168811D8
:1004D000831288113108E000E00AE0030319742A4E
:1004E000FF30E10031206D2A3008E1003120C60ADA
:1004F0000319C70A4B2A2D08463C031DBD2A2E08A6
:10050000B8072F0803182F0FB9075D125D0883166F
:10051000870083120716C501C40145082F02031C7A
:10052000BD2A031D972A2E0844020318BD2A8316EC
:100530008811831288153108E000E00AE0030319EE
:10054000A52AFF30E10031209E2A3008E100312049
:1005500083168811831288113108E000E00AE00355
:100560000319B62AFF30E1003120AF2A3008E1003C
:100570003120C40A0319C50A8D2A2D08453C031DE4
:100580002D08443C031D022B2E08B8022F08031C23
:100590002F0FB9025D125D088316870083120712C0
:1005A000C701C60147082F02031C022B031DDC2ACA
:1005B0002E0846020318022B831688118312881511
:1005C0003108E000E00AE0030319EA2AFF30E10005
:1005D0003120E32A3008E10031208316881183128C
:1005E00088113108E000E00AE0030319FB2AFF301C
:1005F000E1003120F42A3008E1003120C60A031955
:10060000C70AD22A2D084B3C031D822B2E08B8079F
:100610002F0803182F0FB9072E08BA022F08031C42
:100620002F0FBB02DD115D0883168700831287112F
:10063000CB01CA014B082F02031C4A2B031D242B9C
:100640002E084A0203184A2B831608108312081436
:100650003108E000E00AE0030319322BFF30E1002B
:1006600031202B2B3008E100312083160810831233
:1006700008103108E000E00AE0030319432BFF30C3
:10068000E10031203C2B3008E1003120CA0A031977
:10069000CB0A1A2B5D125D0883168700831207169A
:1006A000C501C40145082F02031C822B031D5C2BCE
:1006B0002E0844020318822B831688118312881592
:1006C0003108E000E00AE00303196A2BFF30E10083
:1006D0003120632B3008E10031208316881183120A
:1006E00088113108E000E00AE00303197B2BFF309A
:1006F000E1003120742B3008E1003120C40A0319D5
:10070000C50A522B2D08483C031DC42B2E08BA02E3
:100710002F08031C2F0FBB02DD115D088316870015
:1007200083128711C901C80149082F02031CC42B79
:10073000031D9E2B2E0848020318C42B8316081095
:10074000831208143108E000E00AE0030319AC2B1F
:10075000FF30E1003120A52B3008E1003120831665
:100760000810831208103108E000E00AE0030319C2
:10077000BD2BFF30E1003120B62B3008E1003120E5
:10078000C80A0319C90A942B2D08473C031D442CA1
:100790002E08BA022F08031C2F0FBB022E08B80226
:1007A0002F08031C2F0FB902DD115D088316870087
:1007B00083128711CB01CA014B082F02031C0C2C9A
:1007C000031DE62B2E084A0203180C2C8316081072
:1007D000831208143108E000E00AE0030319F42B47
:1007E000FF30E1003120ED2B3008E100312083168D
:1007F0000810831208103108E000E00AE003031932
:10080000052CFF30E1003120FE2B3008E1003120C3
:10081000CA0A0319CB0ADC2B5D125D088316870018
:1008200083120712C701C60147082F02031C442C7C
:10083000031D1E2C2E0846020318442C8316881113
:10084000831288153108E000E00AE00303192C2C1C
:10085000FF30E1003120252C3008E10031208316E3
:100860008811831288113108E000E00AE0030319BF
:100870003D2CFF30E1003120362C3008E1003120E2
:10088000C60A0319C70A142C2D08493C031DC52D9F
:100890005C0BC52D3908FA003808B91F582C3808E8
:1008A000003CF700FA013908031C390FFA027708F7
:1008B000E0007A08E10038086002031D632C390863
:1008C00061020319AC2C3908FA003808B91F712CE1
:1008D0003808003CF700FA013908031C390FFA0206
:1008E0007708BC007A08BD005D125D08831687009A
:1008F00083120716DB01DA015B083D02031CAC2CF6
:10090000031D862C3C085A020318AC2C8316881150
:10091000831288153708E000E00AE0030319942CDD
:10092000FF30E10031208D2C3608E10031208316A4
:100930008811831288113708E000E00AE0030319E8
:10094000A52CFF30E10031209E2C3608E10031203B
:10095000DA0A0319DB0A7C2C3B08FA003A08BB1FB1
:10096000BA2C3A08003CF700FA013B08031C3B0F85
:10097000FA027708E0007A08E1003A086002031DF5
:10098000C52C3B08610203190E2D3B08FA003A08FA
:10099000BB1FD32C3A08003CF700FA013B08031CAC
:1009A0003B0FFA027708C0007A08C100DD115D082C
:1009B0008316870083128715D501D401550841029B
:1009C000031C0E2D031DE82C4008540203180E2DA5
:1009D00083160810831208143708E000E00AE003C9
:1009E0000319F62CFF30E1003120EF2C3608E1002E
:1009F000312083160810831208103708E000E00A3F
:100A0000E0030319072DFF30E1003120002D3608E7
:100A1000E1003120D40A0319D50ADE2C3908FA0086
:100A20003808B91F1C2D3808003CF700FA013908B6
:100A3000031C390FFA027708E0007A08E100380851
:100A40006002031D632D39086102031D632D3908FF
:100A5000BF003808BE005D125D0883168700831250
:100A60000712D901D80159083F02031C632D031D49
:100A70003D2D3E0858020318632D831688118312FA
:100A800088153708E000E00AE00303194B2DFF301A
:100A9000E1003120442D3608E10031208316881111
:100AA000831288113708E000E00AE00303195C2D87
:100AB000FF30E1003120552D3608E1003120D80A01
:100AC0000319D90A332D3B08FA003A08BB1F712DD0
:100AD0003A08003CF700FA013B08031C3B0FFA02FE
:100AE0007708E0007A08E1003A086002031DB82D9B
:100AF0003B086102031DB82D3B08C3003A08C20041
:100B0000DD115D088316870083128711D701D60196
:100B100057084302031CB82D031D922D42085602AC
:100B20000318B82D83160810831208143708E00044
:100B3000E00AE0030319A02DFF30E1003120992DD8
:100B40003608E10031208316081083120810370898
:100B5000E000E00AE0030319B12DFF30E10031208D
:100B6000AA2D3608E1003120D60A0319D70A882DAC
:100B7000C101C001C301C201BF01BE01BD01BC0171
:100B8000BB01BA01B901B801DC012D084D3C031DC0
:100B9000ED2D831686128312861683160612831293
:100BA000061283168611831286118316061183128C
:100BB0000611831686108312861083160610831280
:100BC0000610831688138312881383160813831262
:100BD000081383168812831288122D084E3C031DB9
:100BE000152E83168612831286128316061283121E
:100BF0000616831686118312861183160611831238
:100C0000061183168610831286108316061083122F
:100C10000610831688138312881383160813831211
:100C2000081383168812831288122D08533C031D63
:100C30003D2E8316861283128612831606128312A5
:100C400006128316861183128615831606118312E7
:100C500006118316861083128610831606108312DF
:100C600006108316881383128813831608138312C1
:100C7000081383168812831288122D084C3C031D1A
:100C8000652E83168612831286128316061283122D
:100C9000061283168611831286118316061183129B
:100CA000061583168610831286108316061083128B
:100CB0000610831688138312881383160813831271
:100CC000081383168812831288122D08523C031DC4
:100CD0008D2E8316861283128612831606128312B5
:100CE000061283168611831286118316061183124B
:100CF000061183168610831286148316061083123B
:100D00000610831688138312881383160813831220
:100D1000081383168812831288122D08503C031D75
:100D2000B52E83168612831286128316061283123C
:100D300006128316861183128611831606118312FA
:100D400006118316861083128610831606108312EE
:100D500006148316881383128813831608138312CC
:100D6000081383168812831288122D08543C031D21
:100D7000DD2E8316861283128612831606128312C4
:100D800006128316861183128611831606118312AA
:100D9000061183168610831286108316061083129E
:100DA000061083168813831288178316081383127C
:100DB000081383168812831288122D08593C031DCC
:100DC000052F83168612831286128316061283124B
:100DD000061283168611831286118316061183125A
:100DE000061183168610831286108316061083124E
:100DF0000610831688138312881383160813831230
:100E0000081783168812831288122D085A3C031D76
:100E10002D2F8316861283128612831606128312D2
:100E20000612831686118312861183160611831209
:100E300006118316861083128610831606108312FD
:100E400006108316881383128813831608138312DF
:100E5000081383168812831288168C128A110A12BC
:100E60001D285F308400831300080319442F0630C7
:100E7000F800F701F70B3A2FF80B392F7B30F7000A
:100E8000F70B402F800B372F8A110A12A92F8130C0
:100E900083169900A6309800903083129800AF0115
:100EA0001E30AE000330B100E830B000B301643052
:100EB000B2000330B500E830B4000130B700903024
:100EC000B600B901B801BB01BA010130DC00FF3046
:100ED000DD0083161F149F141F159F1107309C00FF
:100EE00083131F3083058312A701A801C0308B0430
:100EF000831608118312081583168810831288142C
:100F0000831686128312861683160612831206161D
:100F10008316861183128615831606118312061511
:100F20008316861083128614831606108312061405
:100F300083168813831288178316081383120817E1
:100F400083168812831288160430DE00FA30DF0020
:100F5000312FDE0BA62F831686128312861283167C
:100F600006128312061283168611831286118316C7
:100F700006118312061183168610831286108316BB
:100F800006108312061083168813831288138316A3
:100F9000081383120813831688128312881283168B
:100FA0008C1608118312081183168810831288107A
:040FB000CF2F6300DC
:02400E003A3F37
:00000001FF
;PIC16F877A
;CRC=BD40  CREATED="13-Ara-18 23:52"
